{
  "contractName": "AppointmentBooking",
  "abi": [
    {
      "inputs": [],
      "stateMutability": "nonpayable",
      "type": "constructor"
    },
    {
      "anonymous": false,
      "inputs": [
        {
          "indexed": false,
          "internalType": "uint256",
          "name": "appointmentId",
          "type": "uint256"
        },
        {
          "indexed": false,
          "internalType": "address",
          "name": "patient",
          "type": "address"
        },
        {
          "indexed": false,
          "internalType": "uint256",
          "name": "date",
          "type": "uint256"
        }
      ],
      "name": "AppointmentBooked",
      "type": "event"
    },
    {
      "anonymous": false,
      "inputs": [
        {
          "indexed": false,
          "internalType": "uint256",
          "name": "appointmentId",
          "type": "uint256"
        }
      ],
      "name": "AppointmentCancelled",
      "type": "event"
    },
    {
      "anonymous": false,
      "inputs": [
        {
          "indexed": false,
          "internalType": "uint256",
          "name": "appointmentId",
          "type": "uint256"
        }
      ],
      "name": "AppointmentConfirmed",
      "type": "event"
    },
    {
      "inputs": [],
      "name": "admin",
      "outputs": [
        {
          "internalType": "address",
          "name": "",
          "type": "address"
        }
      ],
      "stateMutability": "view",
      "type": "function"
    },
    {
      "inputs": [],
      "name": "appointmentCount",
      "outputs": [
        {
          "internalType": "uint256",
          "name": "",
          "type": "uint256"
        }
      ],
      "stateMutability": "view",
      "type": "function"
    },
    {
      "inputs": [
        {
          "internalType": "uint256",
          "name": "",
          "type": "uint256"
        }
      ],
      "name": "appointments",
      "outputs": [
        {
          "internalType": "address",
          "name": "patient",
          "type": "address"
        },
        {
          "internalType": "uint256",
          "name": "date",
          "type": "uint256"
        },
        {
          "internalType": "bool",
          "name": "confirmed",
          "type": "bool"
        }
      ],
      "stateMutability": "view",
      "type": "function"
    },
    {
      "inputs": [
        {
          "internalType": "uint256",
          "name": "date",
          "type": "uint256"
        }
      ],
      "name": "bookAppointment",
      "outputs": [],
      "stateMutability": "nonpayable",
      "type": "function"
    },
    {
      "inputs": [
        {
          "internalType": "uint256",
          "name": "appointmentId",
          "type": "uint256"
        }
      ],
      "name": "confirmAppointment",
      "outputs": [],
      "stateMutability": "nonpayable",
      "type": "function"
    },
    {
      "inputs": [
        {
          "internalType": "uint256",
          "name": "appointmentId",
          "type": "uint256"
        }
      ],
      "name": "cancelAppointment",
      "outputs": [],
      "stateMutability": "nonpayable",
      "type": "function"
    }
  ],
  "bytecode": "0x608060405234801561001057600080fd5b5033600260006101000a81548173ffffffffffffffffffffffffffffffffffffffff021916908373ffffffffffffffffffffffffffffffffffffffff16021790555061078d806100616000396000f3fe608060405234801561001057600080fd5b50600436106100625760003560e01c806312dc901314610067578063a7e6440514610099578063c645e739146100b5578063cefead95146100d1578063eebc3fb2146100ed578063f851a4401461010b575b600080fd5b610081600480360381019061007c91906104ef565b610129565b604051610090939291906105c6565b60405180910390f35b6100b360048036038101906100ae91906104ef565b610180565b005b6100cf60048036038101906100ca91906104ef565b6102a2565b005b6100eb60048036038101906100e691906104ef565b6103b6565b005b6100f56104ae565b604051610102919061061d565b60405180910390f35b6101136104b4565b60405161012091906105ab565b60405180910390f35b60006020528060005260406000206000915090508060000160009054906101000a900473ffffffffffffffffffffffffffffffffffffffff16908060010154908060020160009054906101000a900460ff16905083565b600260009054906101000a900473ffffffffffffffffffffffffffffffffffffffff1673ffffffffffffffffffffffffffffffffffffffff163373ffffffffffffffffffffffffffffffffffffffff1614610210576040517f08c379a0000000000000000000000000000000000000000000000000000000008152600401610207906105fd565b60405180910390fd5b600080828152602001908152602001600020600080820160006101000a81549073ffffffffffffffffffffffffffffffffffffffff021916905560018201600090556002820160006101000a81549060ff021916905550507f4b0e2b6047be1a990287b0818b6f06236be270f55a306ec58398d8b9aa7f6e7381604051610297919061061d565b60405180910390a150565b600160008154809291906102b5906106c8565b919050555060405180606001604052803373ffffffffffffffffffffffffffffffffffffffff16815260200182815260200160001515815250600080600154815260200190815260200160002060008201518160000160006101000a81548173ffffffffffffffffffffffffffffffffffffffff021916908373ffffffffffffffffffffffffffffffffffffffff1602179055506020820151816001015560408201518160020160006101000a81548160ff0219169083151502179055509050507f82bb4fcdc78c8a61872b05f940ffc6304d86e17ded79a2c4379653191a62d22460015433836040516103ab93929190610638565b60405180910390a150565b600260009054906101000a900473ffffffffffffffffffffffffffffffffffffffff1673ffffffffffffffffffffffffffffffffffffffff163373ffffffffffffffffffffffffffffffffffffffff1614610446576040517f08c379a000000000000000000000000000000000000000000000000000000000815260040161043d906105fd565b60405180910390fd5b600160008083815260200190815260200160002060020160006101000a81548160ff0219169083151502179055507f31b574c71982839b50b1f27014bd878e5d09df2523fd4ea5d288148a7c6479d9816040516104a3919061061d565b60405180910390a150565b60015481565b600260009054906101000a900473ffffffffffffffffffffffffffffffffffffffff1681565b6000813590506104e981610740565b92915050565b60006020828403121561050157600080fd5b600061050f848285016104da565b91505092915050565b61052181610680565b82525050565b61053081610692565b82525050565b600061054360268361066f565b91507f4f6e6c79207468652061646d696e2063616e20706572666f726d20746869732060008301527f616374696f6e00000000000000000000000000000000000000000000000000006020830152604082019050919050565b6105a5816106be565b82525050565b60006020820190506105c06000830184610518565b92915050565b60006060820190506105db6000830186610518565b6105e8602083018561059c565b6105f56040830184610527565b949350505050565b6000602082019050818103600083015261061681610536565b9050919050565b6000602082019050610632600083018461059c565b92915050565b600060608201905061064d600083018661059c565b61065a6020830185610518565b610667604083018461059c565b949350505050565b600082825260208201905092915050565b600061068b8261069e565b9050919050565b60008115159050919050565b600073ffffffffffffffffffffffffffffffffffffffff82169050919050565b6000819050919050565b60006106d3826106be565b91507fffffffffffffffffffffffffffffffffffffffffffffffffffffffffffffffff82141561070657610705610711565b5b600182019050919050565b7f4e487b7100000000000000000000000000000000000000000000000000000000600052601160045260246000fd5b610749816106be565b811461075457600080fd5b5056fea2646970667358221220f397bce1e7fa29aa06587d13c6db85633f8a9ecb0211d771b266e49ec975e4f564736f6c63430008000033",
  "immutableReferences": {},
  "source": "// SPDX-License-Identifier: MIT\npragma solidity ^0.8.0;\n\ncontract AppointmentBooking {\n    struct Appointment {\n        address patient;\n        uint256 date;\n        bool confirmed;\n    }\n\n    mapping(uint256 => Appointment) public appointments;\n    uint256 public appointmentCount;\n    address public admin;\n\n    event AppointmentBooked(uint256 appointmentId, address patient, uint256 date);\n    event AppointmentConfirmed(uint256 appointmentId);\n    event AppointmentCancelled(uint256 appointmentId);\n\n    constructor() {\n        admin = msg.sender; // Set the contract creator as the admin\n    }\n\n    modifier onlyAdmin() {\n        require(msg.sender == admin, \"Only the admin can perform this action\");\n        _;\n    }\n\n    function bookAppointment(uint256 date) public {\n        appointmentCount++;\n        appointments[appointmentCount] = Appointment(msg.sender, date, false);\n        emit AppointmentBooked(appointmentCount, msg.sender, date);\n    }\n\n    function confirmAppointment(uint256 appointmentId) public onlyAdmin {\n        appointments[appointmentId].confirmed = true;\n        emit AppointmentConfirmed(appointmentId);\n    }\n\n    function cancelAppointment(uint256 appointmentId) public onlyAdmin {\n        delete appointments[appointmentId];\n        emit AppointmentCancelled(appointmentId);\n    }\n}\n",
  "sourcePath": "/media/administrator/D2AE8D70AE8D4E43/Param/param_programs/github/site/web3/sonara/contracts/contracts/AppointmentBooking.sol",
  "compiler": {
    "name": "solc",
    "version": "0.8.0+commit.c7dfd78e.Emscripten.clang"
  },
  "schemaVersion": "3.4.16",
  "updatedAt": "2024-10-26T12:44:41.689Z",
  "devdoc": {
    "kind": "dev",
    "methods": {},
    "version": 1
  },
  "userdoc": {
    "kind": "user",
    "methods": {},
    "version": 1
  }
}