{
  "contractName": "DrugInventory",
  "abi": [
    {
      "inputs": [],
      "stateMutability": "nonpayable",
      "type": "constructor"
    },
    {
      "anonymous": false,
      "inputs": [
        {
          "indexed": false,
          "internalType": "uint256",
          "name": "drugId",
          "type": "uint256"
        },
        {
          "indexed": false,
          "internalType": "string",
          "name": "name",
          "type": "string"
        },
        {
          "indexed": false,
          "internalType": "uint256",
          "name": "quantity",
          "type": "uint256"
        },
        {
          "indexed": false,
          "internalType": "uint256",
          "name": "price",
          "type": "uint256"
        }
      ],
      "name": "DrugAdded",
      "type": "event"
    },
    {
      "anonymous": false,
      "inputs": [
        {
          "indexed": false,
          "internalType": "uint256",
          "name": "drugId",
          "type": "uint256"
        },
        {
          "indexed": false,
          "internalType": "uint256",
          "name": "quantity",
          "type": "uint256"
        }
      ],
      "name": "DrugUpdated",
      "type": "event"
    },
    {
      "inputs": [],
      "name": "admin",
      "outputs": [
        {
          "internalType": "address",
          "name": "",
          "type": "address"
        }
      ],
      "stateMutability": "view",
      "type": "function"
    },
    {
      "inputs": [],
      "name": "drugCount",
      "outputs": [
        {
          "internalType": "uint256",
          "name": "",
          "type": "uint256"
        }
      ],
      "stateMutability": "view",
      "type": "function"
    },
    {
      "inputs": [
        {
          "internalType": "uint256",
          "name": "",
          "type": "uint256"
        }
      ],
      "name": "inventory",
      "outputs": [
        {
          "internalType": "string",
          "name": "name",
          "type": "string"
        },
        {
          "internalType": "uint256",
          "name": "quantity",
          "type": "uint256"
        },
        {
          "internalType": "uint256",
          "name": "price",
          "type": "uint256"
        }
      ],
      "stateMutability": "view",
      "type": "function"
    },
    {
      "inputs": [
        {
          "internalType": "string",
          "name": "name",
          "type": "string"
        },
        {
          "internalType": "uint256",
          "name": "quantity",
          "type": "uint256"
        },
        {
          "internalType": "uint256",
          "name": "price",
          "type": "uint256"
        }
      ],
      "name": "addDrug",
      "outputs": [],
      "stateMutability": "nonpayable",
      "type": "function"
    },
    {
      "inputs": [
        {
          "internalType": "uint256",
          "name": "drugId",
          "type": "uint256"
        },
        {
          "internalType": "uint256",
          "name": "quantity",
          "type": "uint256"
        }
      ],
      "name": "updateDrug",
      "outputs": [],
      "stateMutability": "nonpayable",
      "type": "function"
    },
    {
      "inputs": [
        {
          "internalType": "uint256",
          "name": "drugId",
          "type": "uint256"
        }
      ],
      "name": "getDrugDetails",
      "outputs": [
        {
          "internalType": "string",
          "name": "",
          "type": "string"
        },
        {
          "internalType": "uint256",
          "name": "",
          "type": "uint256"
        },
        {
          "internalType": "uint256",
          "name": "",
          "type": "uint256"
        }
      ],
      "stateMutability": "view",
      "type": "function"
    }
  ],
  "bytecode": "0x608060405234801561001057600080fd5b5033600260006101000a81548173ffffffffffffffffffffffffffffffffffffffff021916908373ffffffffffffffffffffffffffffffffffffffff160217905550610c51806100616000396000f3fe608060405234801561001057600080fd5b50600436106100625760003560e01c806314a029b8146100675780634272ee18146100835780634745f040146100b557806360ee0b6d146100d15780637577ca3714610103578063f851a44014610121575b600080fd5b610081600480360381019061007c919061078e565b61013f565b005b61009d60048036038101906100989190610765565b610277565b6040516100ac939291906108e2565b60405180910390f35b6100cf60048036038101906100ca91906106fe565b610329565b005b6100eb60048036038101906100e69190610765565b610478565b6040516100fa939291906108e2565b60405180910390f35b61010b6105b2565b6040516101189190610960565b60405180910390f35b6101296105b8565b60405161013691906108c7565b60405180910390f35b600260009054906101000a900473ffffffffffffffffffffffffffffffffffffffff1673ffffffffffffffffffffffffffffffffffffffff163373ffffffffffffffffffffffffffffffffffffffff16146101cf576040517f08c379a00000000000000000000000000000000000000000000000000000000081526004016101c690610920565b60405180910390fd5b6000821180156101e157506001548211155b610220576040517f08c379a000000000000000000000000000000000000000000000000000000000815260040161021790610940565b60405180910390fd5b80600080848152602001908152602001600020600101819055507f4dea9b7987717a012157dfa2de6bf2a930da23a5b55fe0bf2b40c98141fc63df828260405161026b9291906109c7565b60405180910390a15050565b600060205280600052604060002060009150905080600001805461029a90610aeb565b80601f01602080910402602001604051908101604052809291908181526020018280546102c690610aeb565b80156103135780601f106102e857610100808354040283529160200191610313565b820191906000526020600020905b8154815290600101906020018083116102f657829003601f168201915b5050505050908060010154908060020154905083565b600260009054906101000a900473ffffffffffffffffffffffffffffffffffffffff1673ffffffffffffffffffffffffffffffffffffffff163373ffffffffffffffffffffffffffffffffffffffff16146103b9576040517f08c379a00000000000000000000000000000000000000000000000000000000081526004016103b090610920565b60405180910390fd5b600160008154809291906103cc90610b1d565b91905055506040518060600160405280848152602001838152602001828152506000806001548152602001908152602001600020600082015181600001908051906020019061041c9291906105de565b5060208201518160010155604082015181600201559050507f5b5755b262b850b85821421089fb7b9f0989af8fbdbb918ac09d7dd30087d21260015484848460405161046b949392919061097b565b60405180910390a1505050565b606060008060008411801561048f57506001548411155b6104ce576040517f08c379a00000000000000000000000000000000000000000000000000000000081526004016104c590610940565b60405180910390fd5b60008060008681526020019081526020016000206040518060600160405290816000820180546104fd90610aeb565b80601f016020809104026020016040519081016040528092919081815260200182805461052990610aeb565b80156105765780601f1061054b57610100808354040283529160200191610576565b820191906000526020600020905b81548152906001019060200180831161055957829003601f168201915b50505050508152602001600182015481526020016002820154815250509050806000015181602001518260400151935093509350509193909250565b60015481565b600260009054906101000a900473ffffffffffffffffffffffffffffffffffffffff1681565b8280546105ea90610aeb565b90600052602060002090601f01602090048101928261060c5760008555610653565b82601f1061062557805160ff1916838001178555610653565b82800160010185558215610653579182015b82811115610652578251825591602001919060010190610637565b5b5090506106609190610664565b5090565b5b8082111561067d576000816000905550600101610665565b5090565b600061069461068f84610a21565b6109f0565b9050828152602081018484840111156106ac57600080fd5b6106b7848285610aa9565b509392505050565b600082601f8301126106d057600080fd5b81356106e0848260208601610681565b91505092915050565b6000813590506106f881610c04565b92915050565b60008060006060848603121561071357600080fd5b600084013567ffffffffffffffff81111561072d57600080fd5b610739868287016106bf565b935050602061074a868287016106e9565b925050604061075b868287016106e9565b9150509250925092565b60006020828403121561077757600080fd5b6000610785848285016106e9565b91505092915050565b600080604083850312156107a157600080fd5b60006107af858286016106e9565b92505060206107c0858286016106e9565b9150509250929050565b6107d381610a6d565b82525050565b60006107e482610a51565b6107ee8185610a5c565b93506107fe818560208601610ab8565b61080781610bf3565b840191505092915050565b600061081f602683610a5c565b91507f4f6e6c79207468652061646d696e2063616e20706572666f726d20746869732060008301527f616374696f6e00000000000000000000000000000000000000000000000000006020830152604082019050919050565b6000610885600f83610a5c565b91507f496e76616c6964206472756720494400000000000000000000000000000000006000830152602082019050919050565b6108c181610a9f565b82525050565b60006020820190506108dc60008301846107ca565b92915050565b600060608201905081810360008301526108fc81866107d9565b905061090b60208301856108b8565b61091860408301846108b8565b949350505050565b6000602082019050818103600083015261093981610812565b9050919050565b6000602082019050818103600083015261095981610878565b9050919050565b600060208201905061097560008301846108b8565b92915050565b600060808201905061099060008301876108b8565b81810360208301526109a281866107d9565b90506109b160408301856108b8565b6109be60608301846108b8565b95945050505050565b60006040820190506109dc60008301856108b8565b6109e960208301846108b8565b9392505050565b6000604051905081810181811067ffffffffffffffff82111715610a1757610a16610bc4565b5b8060405250919050565b600067ffffffffffffffff821115610a3c57610a3b610bc4565b5b601f19601f8301169050602081019050919050565b600081519050919050565b600082825260208201905092915050565b6000610a7882610a7f565b9050919050565b600073ffffffffffffffffffffffffffffffffffffffff82169050919050565b6000819050919050565b82818337600083830152505050565b60005b83811015610ad6578082015181840152602081019050610abb565b83811115610ae5576000848401525b50505050565b60006002820490506001821680610b0357607f821691505b60208210811415610b1757610b16610b95565b5b50919050565b6000610b2882610a9f565b91507fffffffffffffffffffffffffffffffffffffffffffffffffffffffffffffffff821415610b5b57610b5a610b66565b5b600182019050919050565b7f4e487b7100000000000000000000000000000000000000000000000000000000600052601160045260246000fd5b7f4e487b7100000000000000000000000000000000000000000000000000000000600052602260045260246000fd5b7f4e487b7100000000000000000000000000000000000000000000000000000000600052604160045260246000fd5b6000601f19601f8301169050919050565b610c0d81610a9f565b8114610c1857600080fd5b5056fea2646970667358221220878afcff50fc8f06aca50d664dca04fad97116c16aa14f551b1ac5e4bb0e4a6f64736f6c63430008000033",
  "immutableReferences": {},
  "source": "// SPDX-License-Identifier: MIT\npragma solidity ^0.8.0;\n\ncontract DrugInventory {\n    struct Drug {\n        string name;\n        uint256 quantity;\n        uint256 price;\n    }\n\n    mapping(uint256 => Drug) public inventory;\n    uint256 public drugCount;\n    address public admin;\n\n    event DrugAdded(uint256 drugId, string name, uint256 quantity, uint256 price);\n    event DrugUpdated(uint256 drugId, uint256 quantity);\n\n    constructor() {\n        admin = msg.sender; // Set the contract creator as the admin\n    }\n\n    modifier onlyAdmin() {\n        require(msg.sender == admin, \"Only the admin can perform this action\");\n        _;\n    }\n\n    function addDrug(string memory name, uint256 quantity, uint256 price) public onlyAdmin {\n        drugCount++;\n        inventory[drugCount] = Drug(name, quantity, price);\n        emit DrugAdded(drugCount, name, quantity, price);\n    }\n\n    function updateDrug(uint256 drugId, uint256 quantity) public onlyAdmin {\n        require(drugId > 0 && drugId <= drugCount, \"Invalid drug ID\");\n        inventory[drugId].quantity = quantity;\n        emit DrugUpdated(drugId, quantity);\n    }\n\n    function getDrugDetails(uint256 drugId) public view returns (string memory, uint256, uint256) {\n        require(drugId > 0 && drugId <= drugCount, \"Invalid drug ID\");\n        Drug memory drug = inventory[drugId];\n        return (drug.name, drug.quantity, drug.price);\n    }\n}\n",
  "sourcePath": "/media/administrator/D2AE8D70AE8D4E43/Param/param_programs/github/site/web3/sonara/contracts/contracts/DrugInventory.sol",
  "compiler": {
    "name": "solc",
    "version": "0.8.0+commit.c7dfd78e.Emscripten.clang"
  },
  "schemaVersion": "3.4.16",
  "updatedAt": "2024-10-26T12:44:41.692Z",
  "devdoc": {
    "kind": "dev",
    "methods": {},
    "version": 1
  },
  "userdoc": {
    "kind": "user",
    "methods": {},
    "version": 1
  }
}